:100000000C9434000C9451000C9451000C94510049
:100010000C9451000C9451000C9451000C9451001C
:100020000C9451000C9451000C9451000C9451000C
:100030000C9451000C9451000C9451000C945100FC
:100040000C9451000C9451000C9480000C945100BD
:100050000C9451000C9451000C9451000C945100DC
:100060000C9451000C94510011241FBECFEFD8E026
:10007000DEBFCDBF11E0A0E0B1E0E0EAF1E002C0F8
:1000800005900D92A430B107D9F721E0A4E0B1E0CA
:1000900001C01D92AA30B207E1F70E94C9000C947A
:1000A000CE000C9400002D9A08952D98089510927A
:1000B000C50087E68093C400E0ECF0E080818D7F8E
:1000C000808386E08093C20088E98093C100089510
:1000D000E0910901E154EE0FFF0BE050FF4F01905A
:1000E000F081E02D09941092040110920901109200
:1000F000050110920601109207011092080108955F
:100100001F920F920FB60F9211242F933F934F938C
:100110005F936F937F938F939F93AF93BF93EF936F
:10012000FF938091C6008093C600823031F40E9414
:10013000730081E0809304011BC090910401992316
:1001400029F0809309011092040112C0833029F430
:100150000E9468000E9473000BC0E5E0F1E090810E
:10016000911101C08083319691E0E930F907B9F728
:10017000FF91EF91BF91AF919F918F917F916F917F
:100180005F914F913F912F910F900FBE0F901F9055
:1001900018950E9457007894259AFFCFF894FFCFC6
:0401A00053005500B3
:00000001FF
