:100000000C9434000C9451000C9451000C94510049
:100010000C9451000C9451000C9451000C9451001C
:100020000C9451000C9451000C9451000C9451000C
:100030000C9451000C9451000C9451000C945100FC
:100040000C9451000C9451000C9444010C945100F8
:100050000C9451000C9451000C9451000C945100DC
:100060000C9451000C94510011241FBECFEFD8E026
:10007000DEBFCDBF11E0A0E0B1E0E2EEF6E002C0ED
:1000800005900D92AA30B107D9F721E0AAE0B1E0BE
:1000900001C01D92A031B207E1F70E948B010C94C0
:1000A0006F030C940000259A209A2198389808959F
:1000B000E1E8F0E080818160808308951092C500BE
:1000C00087E68093C400E0ECF0E080818D7F808340
:1000D00086E08093C20088E98093C1000895EAE732
:1000E000F0E0808187608083ACE7B0E08C91806431
:1000F0008C938C918F778C93808180688083089516
:1001000080917A00806480937A0080917A0086FDE5
:10011000FCCF609178007091790080E090E00E94BF
:10012000740220E030E44CE955E40E94020320E030
:1001300030E040E85AE30E94020320E030E04AEF5A
:1001400053E40E94950120E030E040E251E40E9437
:1001500002020895289A85E38A95F1F7000028980D
:10016000199BFECF10928500109284001999FECF42
:10017000609184007091850080E090E00E9474029C
:1001800020E030E040E85DE30E94020320E030E040
:1001900048E652E40E94020208959091C00095FF43
:1001A000FCCF8093C60008950F931F93CF93DF93E6
:1001B0008C01D62F82E00E94CD0082E30E94CD0008
:1001C000C0E0CD1754F4F801EC0FF11DC7FDFA950E
:1001D00080810E94CD00CF5FF4CF83E0DF91CF918B
:1001E0001F910F910C94CD0082E00E94CD0080E31E
:1001F0000E94CD0083E00C94CD000C94F4002D9A65
:100200000C94F4002D980C94F40082E00E94CD0030
:1002100081E30E94CD0083E00C94CD00CF93DF9367
:1002200000D000D0CDB7DEB769837A838B839C83FF
:1002300064E0CE0101960E94D4000F900F900F90C1
:100240000F90DF91CF9108950E9480000C940E01D1
:100250000E94AA000C940E01E0910F01E154EE0FF0
:10026000FF0BE050FF4F0190F081E02D09941092B8
:100270000A0110920F0110920B0110920C011092C2
:100280000D0110920E0108951F920F920FB60F925A
:1002900011242F933F934F935F936F937F938F938B
:1002A0009F93AF93BF93EF93FF938091C6008230EB
:1002B00031F40E94370181E080930A011BC09091C4
:1002C0000A01992329F080930F0110920A0112C0AC
:1002D000833029F40E942C010E9437010BC0EBE00F
:1002E000F1E09081911101C08083319691E0EF306F
:1002F000F907B9F7FF91EF91BF91AF919F918F915E
:100300007F916F915F914F913F912F910F900FBE11
:100310000F901F9018950E9453000E9458000E9451
:100320005E000E946F007894FFCF5058BB27AA2729
:100330000E94AD010C94C8020E94BA0238F00E94DB
:10034000C10220F039F49F3F19F426F40C94B7024F
:100350000EF4E095E7FB0C94B102E92F0E94D9025C
:1003600058F3BA17620773078407950720F079F4EA
:10037000A6F50C94FB020EF4E0950B2EBA2FA02DDF
:100380000B01B90190010C01CA01A0011124FF2742
:10039000591B99F0593F50F4503E68F11A16F0403D
:1003A000A22F232F342F4427585FF3CF469537953C
:1003B0002795A795F0405395C9F77EF41F16BA0B01
:1003C000620B730B840BBAF09150A1F0FF0FBB1FAF
:1003D000661F771F881FC2F70EC0BA0F621F731FF8
:1003E000841F48F4879577956795B795F7959E3F55
:1003F00008F0B0CF9395880F08F09927EE0F9795E6
:10040000879508950E9416020C94C8020E94C102AA
:1004100058F00E94BA0240F029F45F3F29F00C9492
:10042000B10251110C94FC020C94B7020E94D90243
:1004300068F39923B1F3552391F3951B550BBB2713
:10044000AA2762177307840738F09F5F5F4F220F58
:10045000331F441FAA1FA9F335D00E2E3AF0E0E84F
:1004600032D091505040E695001CCAF72BD0FE2F99
:1004700029D0660F771F881FBB1F2617370748072D
:10048000AB07B0E809F0BB0B802DBF01FF279358E5
:100490005F4F3AF09E3F510578F00C94B1020C94F6
:1004A000FC025F3FE4F3983ED4F386957795679519
:1004B000B795F7959F5FC9F7880F911D969587951A
:1004C00097F90895E1E0660F771F881FBB1F621739
:1004D00073078407BA0720F0621B730B840BBA0BF7
:1004E000EE1F88F7E0950895E89409C097FB3EF465
:1004F00090958095709561957F4F8F4F9F4F992371
:10050000A9F0F92F96E9BB279395F69587957795EE
:100510006795B795F111F8CFFAF4BB0F11F460FFAE
:100520001BC06F5F7F4F8F4F9F4F16C0882311F006
:1005300096E911C0772321F09EE8872F762F05C01A
:10054000662371F096E8862F70E060E02AF09A95B5
:10055000660F771F881FDAF7880F9695879597F9AA
:10056000089597F99F6780E870E060E008959FEF35
:1005700080EC089500240A9416161706180609063A
:10058000089500240A941216130614060506089509
:10059000092E0394000C11F4882352F0BB0F40F491
:1005A000BF2B11F460FF04C06F5F7F4F8F4F9F4FD1
:1005B000089557FD9058440F551F59F05F3F71F053
:1005C0004795880F97FB991F61F09F3F79F08795BA
:1005D0000895121613061406551FF2CF4695F1DF43
:1005E00008C0161617061806991FF1CF86957105D3
:1005F000610508940895E894BB2766277727CB0107
:1006000097F908950E9415030C94C8020E94BA023B
:1006100038F00E94C10220F0952311F00C94B10231
:100620000C94B70211240C94FC020E94D90270F3BE
:10063000959FC1F3950F50E0551F629FF001729F87
:10064000BB27F00DB11D639FAA27F00DB11DAA1F96
:10065000649F6627B00DA11D661F829F2227B00DE3
:10066000A11D621F739FB00DA11D621F839FA00D6E
:10067000611D221F749F3327A00D611D231F849FBE
:10068000600D211D822F762F6A2F11249F57504015
:100690009AF0F1F088234AF0EE0FFF1FBB1F661F90
:1006A000771F881F91505040A9F79E3F510580F059
:1006B0000C94B1020C94FC025F3FE4F3983ED4F337
:1006C000869577956795B795F795E7959F5FC1F7FD
:1006D000FE2B880F911D9695879597F90895F894AC
:0206E000FFCF4A
:0A06E200FD0024012801FF000201C1
:00000001FF
