:100000000C9434000C9451000C9451000C94510049
:100010000C9451000C9451000C9451000C9451001C
:100020000C9451000C9451000C9451000C9451000C
:100030000C9451000C9451000C9451000C945100FC
:100040000C9451000C9451000C94D1030C94510069
:100050000C9451000C9451000C9451000C945100DC
:100060000C9451000C94510011241FBECFEFD8E026
:10007000DEBFCDBF11E0A0E0B1E0E8EFFCE002C0E0
:1000800005900D92AC31B107D9F721E0ACE1B1E0B8
:1000900001C01D92A434B207E1F70E941B040C9426
:1000A0007A060C9400008F929F92AF92BF92CF92EB
:1000B000DF92EF92FF92C0901E01D0901F01E0905E
:1000C0002001F09021018090230190902401A090C4
:1000D0002501B0902601A5019401C701B6010E9437
:1000E000A60487FF11C02091400130914101409149
:1000F000420150914301C701B6010E94CF05181675
:100100005CF410921D011BC0A5019401C701B6014A
:100110000E94A60487FF02C081E00FC02091400129
:10012000309141014091420150914301C701B60114
:100130000E94CF0518161CF482E080931D01FF90E9
:10014000EF90DF90CF90BF90AF909F908F900895E9
:1001500080911D0181111BC02C9820913401309198
:100160003501409136015091370160911E01709127
:100170001F0180912001909121010E94A604181670
:100180001CF02B9A2A9808952B982A9A089581306A
:1001900019F42A9A2B9804C0823029F42B9A2A98B1
:1001A0002C9A0C94530008950895CF92DF92EF9209
:1001B000FF926B017C016093300170933101809359
:1001C00032019093330120E030E040E05FE30E9491
:1001D0003A04609323017093240180932501909346
:1001E000260120E030E040E05FE3C701B6010E9455
:1001F00039046093400170934101809342019093D0
:100200004301FF90EF90DF90CF90089580E090E061
:100210000E944106813029F161E080E090E00E9477
:100220004F0640E050E068EC71E481E090E00E940D
:100230005D0640E050E060EA72E485E090E00E94F4
:100240005D0640E050E06AE273E489E090E00E94DD
:100250005D0640E050E060EA70E48DE090E00E94CE
:100260005D0681E090E00E94490660932B01709347
:100270002C0180932D0190932E0185E090E00E9447
:100280004906609327017093280180932901909378
:100290002A0189E090E00E94490660933C01709336
:1002A0003D0180933E0190933F018DE090E00E94DC
:1002B0004906609334017093350180933601909321
:1002C00037010895209A2198229A239A249A3898DF
:1002D00039980895E1E8F0E0808181608083089595
:1002E0001092C50087E68093C400E0ECF0E08081C6
:1002F0008D7F808386E08093C20088E98093C1006F
:100300000895EAE7F0E0808187608083ACE7B0E0A1
:100310008C9180648C938C918F778C938081806892
:100320008083089580917C008E7F80937C008091F3
:100330007A00806480937A0080917A0086FDFCCFF9
:10034000609178007091790080E090E00E941D0536
:1003500020E030E44CE955E40E94D40520E030E090
:1003600040E85AE30E94D40520E030E04AEF53E42D
:100370000E94390420E030E040E251E40E94AB04E6
:100380000895289A85E38A95F1F700002898199B2B
:10039000FECF10928500109284001999FECF6091D3
:1003A00084007091850080E090E00E941D0520E0AF
:1003B00030E040E85DE30E94D40520E030E048E60C
:1003C00052E40E94AB04089580917C008160809388
:1003D0007C0080917A00806480937A0080917A001A
:1003E00086FDFCCF609178007091790080E090E00C
:1003F0000E941D0520E030E040E85AE30E94D40549
:1004000020E030E048EC52E40E94D4050895AB01AE
:10041000BC0140932B0150932C0160932D017093EC
:100420002E0181E090E00C945D06AB01BC0140938D
:100430002701509328016093290170932A0185E0D8
:1004400090E00C945D06AB01BC0140933C015093DD
:100450003D0160933E0170933F0189E090E00C9470
:100460005D06AB01BC0140932B0150932C016093BE
:100470002D0170932E018DE090E00C945D0690911B
:10048000C00095FFFCCF8093C60008950F931F9383
:10049000CF93DF938C01D62F82E00E943F0282E34C
:1004A0000E943F02C0E0CD1754F4F801EC0FF11D9B
:1004B000C7FDFA9580810E943F02CF5FF4CF83E0B1
:1004C000DF91CF911F910F910C943F0282E00E9427
:1004D0003F0280E30E943F0283E00C943F020C94B1
:1004E000660281E080931D0160913C0170913D01A5
:1004F00080913E0190913F010E94D5000C946602CC
:1005000082E080931D0160913401709135018091EA
:100510003601909137010E94D5000C94660260E08C
:1005200070E088EC91E40E94070260E070E080EAED
:1005300092E40E94150260E070E08AE293E40E9477
:10054000230260E070E080EA90E40E9431020C94A3
:10055000660282E00E943F0281E30E943F0283E044
:100560000C943F020C94A902CF92DF92EF92FF927B
:10057000C0903801D0903901E0903A01F0903B01F1
:1005800020E030E048E452ECC701B6010E94CF05FC
:1005900087FD14C020E030E040EF52E4C701B6010F
:1005A0000E94A604181654F0C701B6010E94070263
:1005B000FF90EF90DF90CF900C946602FF90EF9049
:1005C000DF90CF900C94A902CF92DF92EF92FF922E
:1005D000C0903801D0903901E0903A01F0903B0191
:1005E00020E030E0A901C701B6010E94CF0587FDD8
:1005F00014C020E030E048EC52E4C701B6010E948C
:10060000A604181654F0C701B6010E941502FF9007
:10061000EF90DF90CF900C946602FF90EF90DF9008
:10062000CF900C94A902CF92DF92EF92FF92C090EC
:100630003801D0903901E0903A01F0903B0120E080
:1006400030E040EA50E4C701B6010E94CF0587FDC3
:1006500014C020E030E04AE253E4C701B6010E9432
:10066000A604181654F0C701B6010E942302FF9099
:10067000EF90DF90CF900C946602FF90EF90DF90A8
:10068000CF900C94A902CF92DF92EF92FF92C0908C
:100690003801D0903901E0903A01F0903B0120E020
:1006A00030E040EA50E4C701B6010E94CF0587FD63
:1006B00022C020E030E04AE253E4C701B6010E94C4
:1006C000A6041816C4F020913C0130913D014091E0
:1006D0003E0150913F01C701B6010E94A60487FF69
:1006E0000AC0C701B6010E943102FF90EF90DF906F
:1006F000CF900C946602FF90EF90DF90CF900C9417
:10070000A902CF93DF9300D000D0CDB7DEB76983C5
:100710007A838B839C8364E0CE0101960E9446021B
:100720000F900F900F900F90DF91CF9108950E943E
:1007300092010C9481030E94C1010C9481030E94D8
:10074000E4010C94810360912B0170912C01809144
:100750002D0190912E010C948103609127017091DD
:1007600028018091290190912A010C948103E09144
:100770002F01E154EE0FFF0BE050FF4F0190F0818D
:10078000E02D099410921C0110922F011092220169
:10079000109238011092390110923A0110923B01E7
:1007A00008951F920F920FB60F9211242F933F932B
:1007B0004F935F936F937F938F939F93AF93BF9369
:1007C000EF93FF939091C600923031F40E94C203E0
:1007D00081E080931C011EC080911C01882329F0B8
:1007E00090932F0110921C0115C0933029F40E94A0
:1007F000B7030E94C2030EC080912201843054F4DA
:10080000E82F082E000CFF0BE85CFE4F90838F5FF3
:1008100080932201FF91EF91BF91AF919F918F91B2
:100820007F916F915F914F913F912F910F900FBEEC
:100830000F901F9018950E9406010E9462010E946D
:100840006A010E9470010E94810178948FE39CE903
:100850000197F1F700C000000E94C10160931E01E2
:1008600070931F0180932001909321010E94A800A2
:10087000EDCF5058BB27AA270E9451040C94950530
:100880000E94870538F00E948E0520F039F49F3FC2
:1008900019F426F40C9484050EF4E095E7FB0C940F
:1008A0007E05E92F0E94A60558F3BA176207730761
:1008B0008407950720F079F4A6F50C94C8050EF48A
:1008C000E0950B2EBA2FA02D0B01B90190010C0160
:1008D000CA01A0011124FF27591B99F0593F50F478
:1008E000503E68F11A16F040A22F232F342F4427D0
:1008F000585FF3CF469537952795A795F0405395C8
:10090000C9F77EF41F16BA0B620B730B840BBAF097
:100910009150A1F0FF0FBB1F661F771F881FC2F702
:100920000EC0BA0F621F731F841F48F48795779516
:100930006795B795F7959E3F08F0B0CF9395880FD0
:1009400008F09927EE0F9795879508950E945A050C
:1009500008F481E008950E94BF040C9495050E945C
:100960008E0558F00E94870540F029F45F3F29F07A
:100970000C947E0551110C94C9050C9484050E94B9
:10098000A60568F39923B1F3552391F3951B550BF5
:10099000BB27AA2762177307840738F09F5F5F4F52
:1009A000220F331F441FAA1FA9F335D00E2E3AF091
:1009B000E0E832D091505040E695001CCAF72BD0A9
:1009C000FE2F29D0660F771F881FBB1F26173707FA
:1009D0004807AB07B0E809F0BB0B802DBF01FF272C
:1009E00093585F4F3AF09E3F510578F00C947E0586
:1009F0000C94C9055F3FE4F3983ED4F38695779550
:100A00006795B795F7959F5FC9F7880F911D9695E4
:100A1000879597F90895E1E0660F771F881FBB1F40
:100A2000621773078407BA0720F0621B730B840BED
:100A3000BA0BEE1F88F7E0950895E89409C097FB7C
:100A40003EF490958095709561957F4F8F4F9F4FA5
:100A50009923A9F0F92F96E9BB279395F6958795E9
:100A600077956795B795F111F8CFFAF4BB0F11F4AC
:100A700060FF1BC06F5F7F4F8F4F9F4F16C0882353
:100A800011F096E911C0772321F09EE8872F762F89
:100A900005C0662371F096E8862F70E060E02AF0CA
:100AA0009A95660F771F881FDAF7880F96958795B6
:100AB00097F90895990F0008550FAA0BE0E8FEEF8B
:100AC00016161706E807F907C0F012161306E40712
:100AD000F50798F0621B730B840B950B39F40A260B
:100AE00061F0232B242B252B21F408950A2609F4E9
:100AF000A140A6958FEF811D811D089597F99F67ED
:100B000080E870E060E008959FEF80EC0895002495
:100B10000A941616170618060906089500240A9462
:100B200012161306140605060895092E0394000CE8
:100B300011F4882352F0BB0F40F4BF2B11F460FF77
:100B400004C06F5F7F4F8F4F9F4F089557FD9058A0
:100B5000440F551F59F05F3F71F04795880F97FB81
:100B6000991F61F09F3F79F087950895121613063B
:100B70001406551FF2CF4695F1DF08C0161617066A
:100B80001806991FF1CF869571056105089408959F
:100B9000E894BB2766277727CB0197F908950E9431
:100BA0005A0508F48FEF08950E94E7050C94950507
:100BB0000E94870538F00E948E0520F0952311F0E1
:100BC0000C947E050C94840511240C94C9050E9494
:100BD000A60570F3959FC1F3950F50E0551F629FD6
:100BE000F001729FBB27F00DB11D639FAA27F00D86
:100BF000B11DAA1F649F6627B00DA11D661F829FAD
:100C00002227B00DA11D621F739FB00DA11D621F91
:100C1000839FA00D611D221F749F3327A00D611DAE
:100C2000231F849F600D211D822F762F6A2F112490
:100C30009F5750409AF0F1F088234AF0EE0FFF1FC3
:100C4000BB1F661F771F881F91505040A9F79E3F1A
:100C5000510580F00C947E050C94C9055F3FE4F3C8
:100C6000983ED4F3869577956795B795F795E79570
:100C70009F5FC1F7FE2B880F911D9695879597F979
:100C80000895F999FECF92BD81BDF89A992780B554
:100C90000895A6E1B0E044E050E00C946C06262FE5
:100CA000F999FECF1FBA92BD81BD20BD0FB6F89451
:100CB000FA9AF99A0FBE01960895242F0E945006C1
:100CC000252F0E9450060C9465060E944F06272F80
:100CD0000C945006DC01CB01FC01F999FECF06C053
:100CE000F2BDE1BDF89A319600B40D9241505040EA
:080CF000B8F70895F894FFCF56
:100CF8006F0297039B039F0371028002B202B40242
:0C0D0800E402A303AD03130343038F02B6
:00000001FF
