:100000000C9434000C9451000C9451000C94510049
:100010000C9451000C9451000C9451000C9451001C
:100020000C9451000C9451000C9451000C9451000C
:100030000C9451000C9451000C9451000C945100FC
:100040000C9451000C9451000C94DF000C9451005E
:100050000C9451000C9451000C9451000C945100DC
:100060000C9451000C94510011241FBECFEFD8E026
:10007000DEBFCDBF11E0A0E0B1E0EAE6F2E002C0F1
:1000800005900D92AC30B107D9F711E0ACE0B1E0CA
:1000900001C01D92A231B107E1F70E94CD000C947E
:1000A00033010C9400001092C50087E68093C400D1
:1000B000E0ECF0E080818D7F808386E08093C20059
:1000C00088E98093C1000895AC0120E030E0FA0196
:1000D000E20FF31FE081E33041F48091C00085FF1F
:1000E000FCCF83E08093C60008958091C00085FF17
:1000F000FCCFE093C6002F5F3F4F2730310539F723
:100100000895DF93CF9300D00F92CDB7DEB7DE0115
:100110001196E9E0F1E083E001900D928150E1F762
:10012000CE0101960E9464000F900F900F90CF9126
:10013000DF910895DF93CF9300D00F92CDB7DEB754
:10014000DE011196E6E0F1E083E001900D9281502E
:10015000E1F7CE0101960E9464000F900F900F907E
:10016000CF91DF9108950E94810008952D9A0E94F9
:10017000810008952D980E9481000895E091110159
:10018000E154FF27E7FDF095EE0FFF1FE050FF4F12
:100190000190F081E02D099508950E945300789414
:1001A000259AFFCF10920C011092110110920D01AF
:1001B00010920E0110920F011092100108951F92DB
:1001C0000F920FB60F9211242F933F934F935F938B
:1001D0006F937F938F939F93AF93BF93EF93FF930F
:1001E0009091C600923031F40E94D20081E0809359
:1001F0000C0128C080910C01882329F090931101F3
:1002000010920C011FC0933029F40E94BE000E947E
:10021000D20018C080910D01882311F490930D0134
:1002200080910E01882311F490930E0180910F01AB
:10023000882311F490930F0180911001882311F409
:1002400090931001FF91EF91BF91AF919F918F918A
:100250007F916F915F914F913F912F910F900FBEC2
:0A0260000F901F901895F894FFCF3F
:0C026A00B300B600BA00023103023003FA
:00000001FF
