:100000000C9434000C9451000C9451000C94510049
:100010000C9451000C9451000C9451000C9451001C
:100020000C9451000C9451000C9451000C9451000C
:100030000C9451000C9451000C9451000C945100FC
:100040000C9451000C9451000C9498040C945100A1
:100050000C9451000C9451000C9451000C945100DC
:100060000C9451000C94510011241FBECFEFD8E026
:10007000DEBFCDBF11E0A0E0B1E0EEE8FEE002C0DF
:1000800005900D92AC31B107D9F721E0ACE1B1E0B8
:1000900001C01D92A534B207E1F70E94E2040C945E
:1000A00045070C94000080E090E00E940C0781302E
:1000B00029F161E080E090E00E941A0740E050E002
:1000C00068EC71E481E090E00E94280740E050E095
:1000D00060EA72E485E090E00E94280740E050E08A
:1000E0006AE273E489E090E00E94280740E050E073
:1000F00060EA70E48DE090E00E94280781E090E0E3
:100100000E94140760932C0170932D0180932E019F
:1001100090932F0185E090E00E94140760932801DE
:100120007093290180932A0190932B0189E090E03C
:100130000E94140760933D0170933E0180933F013C
:10014000909340018DE090E00E9414076093350188
:100150007093360180933701909338010895209A67
:100160002198229A239A249A559856985798389805
:1001700039980895E1E8F0E08081816080830895F6
:100180001092C50087E68093C400E0ECF0E0808127
:100190008D7F808386E08093C20088E98093C100D0
:1001A0000895EAE7F0E0808187608083ACE7B0E003
:1001B0008C9180648C938C918F778C9380818068F4
:1001C0008083089580917C008E7F80937C00809155
:1001D0007A00806480937A0080917A0086FDFCCF5B
:1001E000609178007091790080E090E00E94E805CD
:1001F00020E030E44CE955E40E949F0620E030E026
:1002000040E85AE30E949F0620E030E04AEF53E4C2
:100210000E94040520E030E040E251E40E947605AF
:100220000895289A85E38A95F1F700002898199B8C
:10023000FECF10928500109284001999FECF609134
:1002400084007091850080E090E00E94E80520E045
:1002500030E040E85DE30E949F0620E030E048E6A1
:1002600052E40E947605089580917C00816080931D
:100270007C0080917A00806480937A0080917A007B
:1002800086FDFCCF609178007091790080E090E06D
:100290000E94E80520E030E040E85AE30E949F0613
:1002A00020E030E048EC52E40E949F060895CF928F
:1002B000DF92EF92FF926B017C01609331017093AA
:1002C0003201809333019093340120E030E040E824
:1002D0005FE30E94050560932401709325018093DC
:1002E00026019093270120E030E040E85FE3C7015A
:1002F000B6010E940405609341017093420180930E
:10030000430190934401FF90EF90DF90CF900895C8
:100310008F929F92AF92BF92CF92DF92EF92FF9215
:10032000C0901F01D0902001E0902101F0902201A7
:100330008090240190902501A0902601B090270183
:10034000A5019401C701B6010E94710587FF11C084
:10035000209141013091420140914301509144016B
:10036000C701B6010E949A0618165CF410921E018D
:100370001BC0A5019401C701B6010E94710587FF4A
:1003800002C081E00FC020914101309142014091B3
:10039000430150914401C701B6010E949A06181604
:1003A0001CF482E080931E01FF90EF90DF90CF90CD
:1003B000BF90AF909F908F90089580911E01811102
:1003C00023C02C9820E030E040E85FE360913501E5
:1003D0007091360180913701909138010E94050596
:1003E0009B01AC0160911F0170912001809121015E
:1003F000909122010E94710587FF03C02B9A2A98D1
:100400000DC02B982A9A0AC0813019F42A9A2B9889
:1004100004C0823029F42B9A2A982C9A0C948801D3
:1004200008950E94E20020912C0130912D0140910D
:100430002E0150912F010E949A0687FD09C06091FC
:100440003D0170913E0180913F01909140011CC09F
:100450000E943401209128013091290140912A0104
:1004600050912B010E949A0690911D0187FD02C0B8
:10047000992329F391110AC06091350170913601D9
:1004800080913701909138010C94570108954D9B4C
:1004900020C04F9B1EC010921D0185E02A9A2B9A06
:1004A0002C9A2FEF34E39CE0215030409040E1F74C
:1004B00000C000002A982B982C982FEF34E39CE082
:1004C000215030409040E1F700C00000815031F7EA
:1004D00005C04D9B0CC081E080931D0160913501EA
:1004E0007091360180913701909138011BC04F9B6C
:1004F0000CC081E080931D0160913D0170913E012F
:1005000080913F01909140010DC04E9B0DC081E054
:1005100080931D0160911F01709120018091210144
:10052000909122010C9457010895AB01BC014093B6
:100530002C0150932D0160932E0170932F0181E0C7
:1005400090E00C942807AB01BC0140932801509324
:10055000290160932A0170932B0185E090E00C94AF
:100560002807AB01BC0140933D0150933E016093CD
:100570003F017093400189E090E00C942807AB01A3
:10058000BC0140932C0150932D0160932E01709378
:100590002F018DE090E00C9428079091C00095FF0A
:1005A000FCCF8093C60008950F931F93CF93DF93E2
:1005B0008C01D62F82E00E94CD0282E30E94CD0200
:1005C000C0E0CD1754F4F801EC0FF11DC7FDFA950A
:1005D00080810E94CD02CF5FF4CF83E0DF91CF9185
:1005E0001F910F910C94CD0282E00E94CD0280E316
:1005F0000E94CD0283E00C94CD020C94F40281E0C1
:1006000080931D0160913D0170913E0180913F01F9
:10061000909140010E9457010C94F40281E0809374
:100620001D016091350170913601809137019091E3
:1006300038010E9457010C94F40260E070E088ECED
:1006400091E40E94950260E070E080EA92E40E94EA
:10065000A30260E070E08AE293E40E94B10260E0ED
:1006600070E080EA90E40E94BF020C94F40282E001
:100670000E94CD0281E30E94CD0283E00C94CD0262
:10068000CF92DF92EF92FF92C0903901D0903A0161
:10069000E0903B01F0903C01209135013091360112
:1006A0004091370150913801C701B6010E949A0666
:1006B00087FD1BC020913D0130913E0140913F01DB
:1006C00050914001C701B6010E94710518166CF0E7
:1006D00081E080931D01C701B6010E945701FF9080
:1006E000EF90DF90CF900C94F402FF90EF90DF90AA
:1006F000CF900C943703CF92DF92EF92FF92C0908D
:100700003901D0903A01E0903B01F0903C0120E0AB
:1007100030E048E452ECC701B6010E949A0687FD1A
:1007200014C020E030E040EF52E4C701B6010E945F
:100730007105181654F0C701B6010E949502FF908A
:10074000EF90DF90CF900C94F402FF90EF90DF9049
:10075000CF900C943703CF92DF92EF92FF92C0902C
:100760003901D0903A01E0903B01F0903C0120E04B
:1007700030E0A901C701B6010E949A0687FD14C0A6
:1007800020E030E048EC52E4C701B6010E94710558
:10079000181654F0C701B6010E94A302FF90EF9013
:1007A000DF90CF900C94F402FF90EF90DF90CF9009
:1007B0000C943703CF92DF92EF92FF92C0903901F1
:1007C000D0903A01E0903B01F0903C0120E030E015
:1007D00040EA50E4C701B6010E949A0687FD14C0A2
:1007E00020E030E04AE253E4C701B6010E947105FF
:1007F000181654F0C701B6010E94B102FF90EF90A5
:10080000DF90CF900C94F402FF90EF90DF90CF90A8
:100810000C943703CF92DF92EF92FF92C090390190
:10082000D0903A01E0903B01F0903C0120E030E0B4
:1008300040EA50E4C701B6010E949A0687FD22C033
:1008400020E030E04AE253E4C701B6010E9471059E
:100850001816C4F020913D0130913E0140913F01B6
:1008600050914001C701B6010E94710587FF0AC07F
:10087000C701B6010E94BF02FF90EF90DF90CF90BA
:100880000C94F402FF90EF90DF90CF900C9437031C
:10089000CF93DF9300D000D0CDB7DEB769837A83E2
:1008A0008B839C8364E0CE0101960E94D4020F905A
:1008B0000F900F900F90DF91CF9108950E94E2006A
:1008C0000C9448040E9411010C9448040E943401C5
:1008D0000C94480460912C0170912D0180912E019F
:1008E00090912F010C944804609128017091290186
:1008F00080912A0190912B010C944804E0913001E1
:10090000E154EE0FFF0BE050FF4F0190F081E02D1E
:10091000099410921C011092300110922301109240
:10092000390110923A0110923B0110923C01089556
:100930001F920F920FB60F9211242F933F934F9354
:100940005F936F937F938F939F93AF93BF93EF9337
:10095000FF939091C600923031F40E94890481E0A7
:1009600080931C011EC080911C01882329F0909364
:10097000300110921C0115C0933029F40E947E04AE
:100980000E9489040EC080912301843054F4E82F22
:10099000082E000CFF0BE75CFE4F90838F5F809367
:1009A0002301FF91EF91BF91AF919F918F917F9123
:1009B0006F915F914F913F912F910F900FBE0F90CC
:1009C0001F9018950E9453000E94AF000E94BA0029
:1009D0000E94C0000E94D10078948FE39CE90197A7
:1009E000F1F700C000000E94110160931F01709395
:1009F000200180932101909322010E94DD010E9439
:100A000047020E941102E9CF5058BB27AA270E9433
:100A10001C050C9460060E94520638F00E9459068C
:100A200020F039F49F3F19F426F40C944F060EF48D
:100A3000E095E7FB0C944906E92F0E94710658F3F4
:100A4000BA17620773078407950720F079F4A6F5B3
:100A50000C9493060EF4E0950B2EBA2FA02D0B01EB
:100A6000B90190010C01CA01A0011124FF27591BF3
:100A700099F0593F50F4503E68F11A16F040A22FF9
:100A8000232F342F4427585FF3CF4695379527956A
:100A9000A795F0405395C9F77EF41F16BA0B620B69
:100AA000730B840BBAF09150A1F0FF0FBB1F661FB0
:100AB000771F881FC2F70EC0BA0F621F731F841FF3
:100AC00048F4879577956795B795F7959E3F08F019
:100AD000B0CF9395880F08F09927EE0F97958795DB
:100AE00008950E94250608F481E008950E948A0571
:100AF0000C9460060E94590658F00E94520640F07D
:100B000029F45F3F29F00C94490651110C94940686
:100B10000C944F060E94710668F39923B1F3552394
:100B200091F3951B550BBB27AA2762177307840700
:100B300038F09F5F5F4F220F331F441FAA1FA9F396
:100B400035D00E2E3AF0E0E832D091505040E69584
:100B5000001CCAF72BD0FE2F29D0660F771F881FE5
:100B6000BB1F261737074807AB07B0E809F0BB0BD8
:100B7000802DBF01FF2793585F4F3AF09E3F5105EC
:100B800078F00C9449060C9494065F3FE4F3983E89
:100B9000D4F3869577956795B795F7959F5FC9F7D5
:100BA000880F911D9695879597F90895E1E0660F56
:100BB000771F881FBB1F621773078407BA0720F0CF
:100BC000621B730B840BBA0BEE1F88F7E095089538
:100BD000E89409C097FB3EF49095809570956195D7
:100BE0007F4F8F4F9F4F9923A9F0F92F96E9BB278D
:100BF0009395F695879577956795B795F111F8CF09
:100C0000FAF4BB0F11F460FF1BC06F5F7F4F8F4F73
:100C10009F4F16C0882311F096E911C0772321F069
:100C20009EE8872F762F05C0662371F096E8862F01
:100C300070E060E02AF09A95660F771F881FDAF758
:100C4000880F9695879597F90895990F0008550F85
:100C5000AA0BE0E8FEEF16161706E807F907C0F042
:100C600012161306E407F50798F0621B730B840B4A
:100C7000950B39F40A2661F0232B242B252B21F424
:100C800008950A2609F4A140A6958FEF811D811DC4
:100C9000089597F99F6780E870E060E008959FEFFE
:100CA00080EC089500240A94161617061806090603
:100CB000089500240A9412161306140605060895D2
:100CC000092E0394000C11F4882352F0BB0F40F45A
:100CD000BF2B11F460FF04C06F5F7F4F8F4F9F4F9A
:100CE000089557FD9058440F551F59F05F3F71F01C
:100CF0004795880F97FB991F61F09F3F79F0879583
:100D00000895121613061406551FF2CF4695F1DF0B
:100D100008C0161617061806991FF1CF869571059B
:100D2000610508940895E894BB2766277727CB01CF
:100D300097F908950E94250608F48FEF08950E9400
:100D4000B2060C9460060E94520638F00E945906C2
:100D500020F0952311F00C9449060C944F061124B1
:100D60000C9494060E94710670F3959FC1F3950F41
:100D700050E0551F629FF001729FBB27F00DB11D1F
:100D8000639FAA27F00DB11DAA1F649F6627B00DAF
:100D9000A11D661F829F2227B00DA11D621F739F98
:100DA000B00DA11D621F839FA00D611D221F749FA6
:100DB0003327A00D611D231F849F600D211D822FED
:100DC000762F6A2F11249F5750409AF0F1F0882314
:100DD0004AF0EE0FFF1FBB1F661F771F881F915041
:100DE0005040A9F79E3F510580F00C9449060C94A1
:100DF00094065F3FE4F3983ED4F386957795679524
:100E0000B795F795E7959F5FC1F7FE2B880F911D6A
:100E10009695879597F90895F999FECF92BD81BD72
:100E2000F89A992780B50895A6E1B0E044E050E033
:100E30000C943707262FF999FECF1FBA92BD81BDBA
:100E400020BD0FB6F894FA9AF99A0FBE019608954C
:100E5000242F0E941B07252F0E941B070C9430078C
:100E60000E941A07272F0C941B07DC01CB01FC0101
:100E7000F999FECF06C0F2BDE1BDF89A319600B4F3
:0E0E80000D9241505040B8F70895F894FFCFFE
:100E8E00FD025E0462046604FF020E0340037B0350
:0C0E9E00AB036A047404DA030A041D03A9
:00000001FF
