:100000000C9434000C9451000C9451000C94510049
:100010000C9451000C9451000C9451000C9451001C
:100020000C9451000C9451000C9451000C9451000C
:100030000C9451000C9451000C9451000C945100FC
:100040000C9451000C9451000C9487040C945100B2
:100050000C9451000C9451000C9451000C945100DC
:100060000C9451000C94510011241FBECFEFD8E026
:10007000DEBFCDBF12E0A0E0B1E0ECEBFBE102C0DF
:1000800005900D92A432B107D9F712E0A4E2B2E0D4
:1000900001C01D92AD34B107E1F70E94C8060C946F
:1000A000DC0D0C940000209A2198229A239A249A1D
:1000B000559856985798529A539A549A259A229A34
:1000C000239A249A389839980895E1E8F0E08081DD
:1000D0008160808308951092C50087E68093C400F4
:1000E000E0ECF0E080818D7F808386E08093C20029
:1000F00088E98093C1000895AAE7B0E08C918760F9
:100100008C93ECE7F0E080818064808380818F773E
:1001100080838C9180688C93089580917C008E7F81
:1001200080937C0080917A00806480937A00809133
:100130007A0086FDFCCF609178007091790080E0B4
:1001400090E00E94FE0A20E030E44CE955E40E9471
:10015000980820E030E040E85AE30E94980820E048
:1001600030E04AEF53E40E943A0820E030E040E2F9
:1001700051E40E9492090895289A85E38A95F1F73F
:100180002898199BFECF109285001092840019992F
:10019000FECF609184007091850080E090E00E9425
:1001A000FE0A20E030E040E85DE30E94980820E08D
:1001B00030E048E652E40E949209089580917C0064
:1001C000816080937C0080917A00806480937A00C3
:1001D00080917A0086FDFCCF609178007091790063
:1001E00080E090E00E94FE0A20E030E040E85AE320
:1001F0000E94980820E030E048EC52E40E94980801
:100200000895EF92FF920F931F937B018C016093EF
:10021000390270933A0280933B0290933C0220E0B3
:1002200030E040E85FE30E946B0860932C0270931B
:100230002D0280932E0290932F02C801B70120E077
:1002400030E040E85FE30E943A086093490270930F
:100250004A0280934B0290934C021F910F91FF90A2
:10026000EF90089540E050E060EE7EE228C021303B
:1002700071F022301CF4222331F016C0223061F0DC
:10028000233091F40DC05A9A5B9A5C9803C05A9837
:100290005B9A5C9A2D9808C05A985B985C9A03C048
:1002A0005A9A5B985C982D9ACB010197F1F72F5FD2
:1002B0002430E9F64F5F5F4F4634510511F020E0DE
:1002C000D6CF089540E050E060EE7EE227C02130B6
:1002D00071F022301CF4222331F016C0223061F07C
:1002E000233091F40DC05A9A5B9A5C9803C05A98D7
:1002F0005B9A5C9A2D9808C05A985B985C9A03C0E8
:100300005A9A5B985C982D9ACB010197F1F721508E
:10031000F0F64F5F5F4F4634510511F023E0D7CF21
:100320000895EF92FF920F931F93E0902702F090B1
:1003300028020091290210912A02C801B7012091D8
:100340002C0230912D0240912E0250912F020E94DA
:100350009E0A8823BCF4C801B7012091490230915C
:100360004A0240914B0250914C020E943E0A1816DC
:100370001CF41092260219C081E0809326020E948C
:10038000620113C0C801B7012091490230914A02AD
:1003900040914B0250914C020E943E0A18162CF4D8
:1003A00082E0809326020E9432011F910F91FF90FC
:1003B000EF90089580912602882319F52C9860917A
:1003C0003D0270913E0280913F029091400220E0F8
:1003D00030E040E85FE30E946B089B01AC01609154
:1003E0002702709128028091290290912A020E948E
:1003F0009E0A88231CF42B9A2A9808C02B982A9AC4
:1004000005C0813031F42A9A2B982C9A0E949101D0
:100410000895823029F42B9A2A982C9A0E949101EF
:100420000895EF92FF920F931F930E948D002091E9
:1004300034023091350240913602509137020E94C9
:100440006E0A87FF12C00E94DE00209130023091B8
:10045000310240913202509133020E946E0A882389
:100460006CF080912402882349F4E0904502F090DA
:10047000460200914702109148020CC0809124026C
:10048000882381F5E0903D02F0903E0200913F020A
:1004900010914002E0923902F0923A0200933B023E
:1004A00010933C02C801B70120E030E040E85FE370
:1004B0000E946B0860932C0270932D0280932E0291
:1004C00090932F02C801B70120E030E040E85FE3DD
:1004D0000E943A086093490270934A0280934B024B
:1004E00090934C021F910F91FF90EF900895EF921F
:1004F000FF920F931F934D9B1FC04F9B1DC01092E7
:10050000240220E040E951E02A9A2B9A2C9A84ECAC
:1005100099E0FA013197F1F70197D9F72A982B98CA
:100520002C9884EC99E0FA013197F1F70197D9F70B
:100530002F5F253049F705C04D9B0CC081E08093AB
:100540002402E0903D02F0903E0200913F021091A3
:1005500040021BC04F9B0CC081E080932402E090BE
:100560004502F090460200914702109148020DC0EA
:100570004E9B33C081E080932402E0902702F090EC
:1005800028020091290210912A02E0923902F09289
:100590003A0200933B0210933C02C801B70120E0ED
:1005A00030E040E85FE30E946B0860932C02709398
:1005B0002D0280932E0290932F02C801B70120E0F4
:1005C00030E040E85FE30E943A086093490270938C
:1005D0004A0280934B0290934C021F910F91FF901F
:1005E000EF900895982F8091C00085FFFCCF9093E5
:1005F000C6000895482F8091C00085FFFCCF82E09F
:100600008093C6008091C00085FFFCCF82E3809379
:10061000C600242F392FC901FC0108C090818091A8
:10062000C00085FFFCCF9093C60031968E2F841BAF
:100630008617A4F38091C00085FFFCCF83E08093F0
:10064000C60008958091C00085FFFCCF82E08093B2
:10065000C6008091C00085FFFCCF80E38093C60078
:100660008091C00085FFFCCF83E08093C600089591
:100670008091C00085FFFCCF82E08093C60080910E
:10068000C00085FFFCCF81E38093C6008091C0004D
:1006900085FFFCCF83E08093C6000895DF93CF935E
:1006A00000D000D0CDB7DEB769837A838B839C837B
:1006B000CE01019664E00E94FA020F900F900F9015
:1006C0000F90CF91DF9108950E94220308950E9418
:1006D0008D000E944E0308950E94BC000E944E03AC
:1006E00008950E94DE000E944E030895EF92FF924B
:1006F0000F931F9381E080932402E0904502F090D5
:1007000046020091470210914802E0923902F092AD
:100710003A0200933B0210933C02C801B70120E06B
:1007200030E040E85FE30E946B0860932C02709316
:100730002D0280932E0290932F02C801B70120E072
:1007400030E040E85FE30E943A086093490270930A
:100750004A0280934B0290934C020E9422031F9105
:100760000F91FF90EF900895EF92FF920F931F93D8
:1007700081E080932402E0903D02F0903E020091DF
:100780003F0210914002E0923902F0923A02009347
:100790003B0210933C02C801B70120E030E040E882
:1007A0005FE30E946B0860932C0270932D0280938C
:1007B0002E0290932F02C801B70120E030E040E8FC
:1007C0005FE30E943A086093490270934A02809363
:1007D0004B0290934C020E9422031F910F91FF90B5
:1007E000EF900895EF92FF920F931F93E0904102D4
:1007F000F09042020091430210914402C801B701F7
:1008000020913D0230913E0240913F0250914002C2
:100810000E946E0A8823E4F1C801B70120914502C5
:100820003091460240914702509148020E94CE0A00
:10083000181674F181E080932402E0923902F0925C
:100840003A0200933B0210933C02C801B70120E03A
:1008500030E040E85FE30E946B0860932C027093E5
:100860002D0280932E0290932F02C801B70120E041
:1008700030E040E85FE30E943A08609349027093D9
:100880004A0280934B0290934C020E94220302C0C2
:100890000E9438031F910F91FF90EF90089560918F
:1008A00034027091350280913602909137020E9495
:1008B0004E030895609130027091310280913202AE
:1008C000909133020E944E030895E0913802E15462
:1008D000FF27E7FDF095EE0FFF1FE050FF4F01905F
:1008E000F081E02D099508951092250210923802AA
:1008F00010922B0280E090E0A0E0B0E080934102F3
:1009000090934202A0934302B093440208951F9231
:100910000F920FB60F9211242F933F934F935F9333
:100920006F937F938F939F93AF93BF93EF93FF93B7
:100930009091C6009230A1F41092380210922B02CE
:1009400080E090E0A0E0B0E080934102909342020A
:10095000A0934302B093440281E0809325022EC00D
:1009600080912502882329F0909338021092250265
:1009700025C09330A9F40E946504109225021092BC
:10098000380210922B0280E090E0A0E0B0E080936B
:10099000410290934202A0934302B09344020EC0DE
:1009A00080912B02843054F4E82FFF27E7FDF09567
:1009B000EF5BFD4F90838F5F80932B02FF91EF9150
:1009C000BF91AF919F918F917F916F915F914F9167
:1009D0003F912F910F900FBE0F901F901895AB0174
:1009E000BC014093340250933502609336027093F9
:1009F00037028DE090E00E94BF0D0895EF92FF92C4
:100A00000F931F93E0904102F09042020091430245
:100A100010914402C801B70120E030E040EA50E400
:100A20000E946E0A88234CF1C801B70120E030E033
:100A30004AE253E40E94CE0A1816FCF0C801B7013E
:100A40002091450230914602409147025091480260
:100A50000E949E0A88238CF4E0923402F0923502C0
:100A600000933602109337028DE090E0B801A701A1
:100A70000E94BF0D0E94220302C00E9438031F91F2
:100A80000F91FF90EF900895AB01BC014093450298
:100A900050934602609347027093480289E090E0C9
:100AA0000E94BF0D0895EF92FF920F931F93E09065
:100AB0004102F09042020091430210914402C801A9
:100AC000B70120E030E040EA50E40E946E0A88233B
:100AD000DCF0C801B70120E030E04AE253E40E94B4
:100AE000CE0A18168CF0E0924502F092460200936E
:100AF00047021093480289E090E0B801A7010E94E4
:100B0000BF0D0E94220302C00E9438031F910F9163
:100B1000FF90EF900895AB01BC01409330025093D9
:100B20003102609332027093330285E090E00E94BC
:100B3000BF0D0895EF92FF920F931F93E090410233
:100B4000F09042020091430210914402C801B701A3
:100B500020E030E040E050E00E946E0A8823DCF0A4
:100B6000C801B70120E030E048EC52E40E94CE0A10
:100B700018168CF0E0923002F092310200933202AB
:100B80001093330285E090E0B801A7010E94BF0DE9
:100B90000E94220302C00E9438031F910F91FF9010
:100BA000EF900895AB01BC0140933402509335029D
:100BB000609336027093370281E090E00E94BF0D8F
:100BC000089580E090E0A8ECB1E480933402909323
:100BD0003502A0933602B093370281E090E040E006
:100BE00050E068EC71E40E94BF0D80E090E0A0EA64
:100BF000B2E48093300290933102A0933202B0931A
:100C0000330285E090E040E050E060EA72E40E9448
:100C1000BF0D80E090E0AAE2B3E480934502909398
:100C20004602A0934702B093480289E090E040E07A
:100C300050E06AE273E40E94BF0D80E090E0A0EA19
:100C4000B0E48093340290933502A0933602B093BF
:100C500037028DE090E040E050E060EA70E40E94EE
:100C6000BF0D0E9422030895EF92FF920F931F93EE
:100C7000E0904102F0904202009143021091440240
:100C8000C801B70120E030E048E452EC0E946E0A4F
:100C90008823DCF0C801B70120E030E040EF52E4E7
:100CA0000E94CE0A18168CF0E0923402F0923502BF
:100CB000009336021093370281E090E0B801A7015B
:100CC0000E94BF0D0E94220302C00E9438031F91A0
:100CD0000F91FF90EF90089580E090E00E94A30DA7
:100CE000813029F180E090E061E00E94B10D81E067
:100CF00090E040E050E068EC71E40E94BF0D85E0B8
:100D000090E040E050E060EA72E40E94BF0D89E0AC
:100D100090E040E050E06AE273E40E94BF0D8DE095
:100D200090E040E050E060EA70E40E94BF0D81E096
:100D300090E00E94AB0D6093340270933502809373
:100D400036029093370285E090E00E94AB0D6093ED
:100D5000300270933102809332029093330289E023
:100D600090E00E94AB0D6093450270934602809321
:100D70004702909348028DE090E00E94AB0D609393
:100D80003D0270933E0280933F029093400208958B
:100D9000CF93DF930E946C060E94530080918100E4
:100DA0008160809381000E946B000E947C00789497
:100DB000C0E4DCE9CE010197F1F70E94BC0060932A
:100DC0002702709328028093290290932A020E949E
:100DD000DA010E9477020E941102ECCFA0E0B0E09D
:100DE000E4EFF6E00C946C0DDC012B01FA019C9110
:100DF000923008F439C1EB018881823008F433C1A4
:100E0000943069F4843009F02FC111969C911197A8
:100E10008981981709F428C1ACE1B1E025C184307B
:100E200009F421C18230A9F4923009F01DC19A0160
:100E3000AD0188E0EA010990AE01E90109929E0145
:100E40008150C1F7E201898111969C9189238183A8
:100E500008C1923009F407C112962D903C90139767
:100E6000EB018A819B811496AD90BD90CD90DC9072
:100E70001797EC80FD800E811F819101281B390B93
:100E8000B90137FF04C066277727621B730B6032F6
:100E900071050CF061C0121613066CF5370148019C
:100EA000062E04C096948794779467940A94D2F798
:100EB00021E030E040E050E004C0220F331F441F27
:100EC000551F6A95D2F721503040404050402E21A6
:100ED0003F2140235123211531054105510521F0C2
:100EE00021E030E040E050E079018A01E628F7286F
:100EF000082919293CC0232BD1F1260E371E3501B4
:100F00004601062E04C096948794779467940A94B9
:100F1000D2F721E030E040E050E004C0220F331F60
:100F2000441F551F6A95D2F7215030404040504031
:100F30002A213B214C215D21211531054105510517
:100F400021F021E030E040E050E059016A01A6289C
:100F5000B728C828D9280BC0821593052CF01C018E
:100F6000AA24BB24650103C0EE24FF248701119647
:100F70009C91D20111968C91981709F445C0992340
:100F800039F0A80197012A193B094C095D0906C0EF
:100F9000A60195012E193F09400B510B57FD08C0C2
:100FA00011823382228224833583468357831DC076
:100FB00081E081833382228288279927DC01821B8A
:100FC000930BA40BB50B84839583A683B7830DC0C5
:100FD000220F331F441F551F2483358346835783B5
:100FE0008281938101979383828324813581468115
:100FF0005781DA01C9010197A109B1098F5F9F4F9C
:10100000AF4FBF4328F30BC0918333822282EA0C97
:10101000FB1C0C1D1D1DE482F5820683178383E0F3
:101020008083248135814681578157FF1AC0C901C9
:10103000AA2797FDA095BA2F81709070A070B0700C
:101040005695479537952795822B932BA42BB52B37
:1010500084839583A683B78382819381019693834A
:101060008283DF0101C0D201CD01CDB7DEB7E2E15D
:101070000C94880DA0E2B0E0E0E4F8E00C94780D68
:1010800069837A838B839C832D833E834F83588728
:10109000E9E0EE2EF12CEC0EFD1ECE010196B7011B
:1010A0000E949B0C8E010F5E1F4FCE010596B8016A
:1010B0000E949B0C8A8991E089278A8BC701B8011D
:1010C000AE01475E5F4F0E94EE060E94C60BA096DF
:1010D000E6E00C94940DA0E2B0E0E1E7F8E00C94B7
:1010E000780D69837A838B839C832D833E834F8322
:1010F0005887F9E0EF2EF12CEC0EFD1ECE01019683
:10110000B7010E949B0C8E010F5E1F4FCE0105960A
:10111000B8010E949B0CC701B801AE01475E5F4F4A
:101120000E94EE060E94C60BA096E6E00C94940D79
:10113000A0E2B0E0EEE9F8E00C946C0D69837A83EC
:101140008B839C832D833E834F835887CE010196EA
:10115000BE01675F7F4F0E949B0CCE010596BE01CA
:101160006F5E7F4F0E949B0C9985923088F0898931
:101170008230C8F0943019F4823051F404C08430C5
:1011800029F4923081F48CE191E0C6C0923049F4A8
:1011900020E09A858A89981321E02A87CE01099652
:1011A000BBC0823049F420E09A858A89981321E0F7
:1011B0002A8BCE014196B0C02D843E844F8458883E
:1011C0006D887E888F88988CEE24FF248701AA245E
:1011D000BB24650140E050E060E070E0E0E0F0E05A
:1011E000C10181709070892BE9F0E60CF71C081D95
:1011F000191D9A01AB012A0D3B1D4C1D5D1D80E0A0
:1012000090E0A0E0B0E0E614F7040805190520F42A
:1012100081E090E0A0E0B0E0BA01A901480F591FB9
:101220006A1F7B1FAA0CBB1CCC1CDD1C97FE08C0D0
:1012300081E090E0A0E0B0E0A82AB92ACA2ADB2A1F
:101240003196E032F10549F0660C771C881C991C38
:101250005694479437942794C3CFFA85EA892B890B
:101260003C898B859C85280F391F2E5F3F4F17C007
:10127000CA0181709070892B61F016950795F794DB
:10128000E79480E090E0A0E0B0E8E82AF92A0A2B91
:101290001B2B76956795579547952F5F3F4F77FDA9
:1012A000E7CF0CC0440F551F661F771F17FD416025
:1012B000EE0CFF1C001F111F21503040403090E009
:1012C000590790E0690790E4790760F32B8F3C8F12
:1012D000DB01CA018F779070A070B07080349105E7
:1012E000A105B10561F447FD0AC0E114F10401054F
:1012F000110529F0405C5F4F6F4F7F4F40781A8E89
:10130000FE1711F081E08A8F4D8F5E8F6F8F78A36B
:1013100083E0898FCE0149960E94C60BA096E2E138
:101320000C94880DA8E1B0E0E8E9F9E00C94740DA4
:1013300069837A838B839C832D833E834F83588775
:10134000B9E0EB2EF12CEC0EFD1ECE010196B7019B
:101350000E949B0C8E010F5E1F4FCE010596B801B7
:101360000E949B0C2985223008F47EC039893230D6
:1013700010F4B8017CC08A859A8989278A8724302D
:1013800011F0223031F4231709F06EC06CE171E0E6
:101390006EC0343039F41D861E861F86188A1C865E
:1013A0001B8604C0323021F484E08987B7015FC016
:1013B0002B853C858B899C89281B390B3C872B8787
:1013C000ED84FE840F851889AD88BE88CF88D88CBF
:1013D000EA14FB040C051D0540F4EE0CFF1C001F75
:1013E000111F215030403C872B8720E030E040E047
:1013F00050E080E090E0A0E0B0E460E070E0EA144B
:10140000FB040C051D0540F0282B392B4A2B5B2BC8
:10141000EA18FB080C091D09B695A79597958795BD
:10142000EE0CFF1C001F111F6F5F7F4F6F317105A6
:1014300031F7DA01C9018F779070A070B0708034F5
:101440009105A105B10561F427FD0AC0E114F1047D
:101450000105110529F0205C3F4F4F4F5F4F207869
:101460002D873E874F87588BBE01675F7F4FCB012B
:101470000E94C60B6896EAE00C94900DA8E1B0E0DB
:10148000E4E4FAE00C94780D69837A838B839C837F
:101490002D833E834F83588789E0E82EF12CEC0E94
:1014A000FD1ECE010196B7010E949B0C8E010F5EBE
:1014B0001F4FCE010596B8010E949B0C8985823092
:1014C00040F08989823028F0C701B8010E94130DCD
:1014D00001C08FEF6896E6E00C94940DA8E1B0E0AF
:1014E000E4E7FAE00C94780D69837A838B839C831C
:1014F0002D833E834F83588789E0E82EF12CEC0E34
:10150000FD1ECE010196B7010E949B0C8E010F5E5D
:101510001F4FCE010596B8010E949B0C8985823031
:1015200040F08989823028F0C701B8010E94130D6C
:1015300001C08FEF6896E6E00C94940DA8E1B0E04E
:10154000E4EAFAE00C94780D69837A838B839C83B8
:101550002D833E834F83588789E0E82EF12CEC0ED3
:10156000FD1ECE010196B7010E949B0C8E010F5EFD
:101570001F4FCE010596B8010E949B0C89858230D1
:1015800040F08989823028F0C701B8010E94130D0C
:1015900001C081E06896E6E00C94940DA8E1B0E00B
:1015A000E4EDFAE00C94780D69837A838B839C8355
:1015B0002D833E834F83588789E0E82EF12CEC0E73
:1015C000FD1ECE010196B7010E949B0C8E010F5E9D
:1015D0001F4FCE010596B8010E949B0C8985823071
:1015E00040F08989823028F0C701B8010E94130DAC
:1015F00001C081E06896E6E00C94940DA8E0B0E0AC
:10160000E4E0FBE00C94740D7B018C016115710525
:101610008105910519F482E0898360C083E08983A4
:101620008EE1C82ED12CDC82CB82ED82FE820F832C
:101630001887C801B7010E94770BFC013197F7FFAB
:101640003BC0222733272E1B3F0B57016801022E78
:1016500004C0D694C794B794A7940A94D2F740E0F4
:1016600050E060E070E081E090E0A0E0B0E004C015
:10167000880F991FAA1FBB1F2A95D2F70197A109AE
:10168000B1098E219F21A023B1230097A105B105A7
:1016900021F041E050E060E070E04A295B296C29CC
:1016A0007D294D835E836F8378878EE190E08E1B6A
:1016B0009F0B9C838B8312C0309781F00E2E04C049
:1016C000EE0CFF1C001F111F0A94D2F7ED82FE8260
:1016D0000F831887CE1ADF0ADC82CB821A82CE01F2
:1016E00001960E94C60B2896EAE00C94900DEF92AA
:1016F000FF920F931F937B018C0180E0E81680E03E
:10170000F80681E0080780E0180788F48FEFE816F4
:10171000F1040105110531F028F088E090E0A0E027
:10172000B0E017C080E090E0A0E0B0E012C080E040
:10173000E81680E0F80680E0080781E0180728F046
:1017400088E190E0A0E0B0E004C080E190E0A0E09B
:10175000B0E020E230E040E050E0281B390B4A0BBB
:101760005B0B04C016950795F794E7948A95D2F71A
:10177000F701EC5DFE4F8081281B310941095109B9
:10178000C9011F910F91FF90EF900895DF92EF92A2
:10179000FF920F931F93FC01E480F580068117816F
:1017A000D1808081823048F480E090E0A0E1B0E018
:1017B000E82AF92A0A2B1B2BA5C0843009F49FC004
:1017C000823021F4EE24FF24870105C0E114F104E6
:1017D0000105110519F4E0E0F0E096C06281738123
:1017E0009FEF623879070CF05BC022E83FEF261BC1
:1017F000370B2A3131052CF020E030E040E050E09A
:101800002AC0B801A701022E04C0769567955795A6
:1018100047950A94D2F781E090E0A0E0B0E004C0E0
:10182000880F991FAA1FBB1F2A95D2F70197A109FC
:10183000B1098E219F21A023B1230097A105B105F5
:1018400021F081E090E0A0E0B0E09A01AB01282B0C
:10185000392B4A2B5B2BDA01C9018F779070A0706E
:10186000B07080349105A105B10539F427FF09C096
:10187000205C3F4F4F4F5F4F04C0215C3F4F4F4FA5
:101880005F4FE0E0F0E02030A0E03A07A0E04A0738
:10189000A0E45A0710F0E1E0F0E079018A0127C0E6
:1018A0006038710564F5FB01E158FF4FD801C701AD
:1018B0008F779070A070B07080349105A105B1054C
:1018C00039F4E7FE0DC080E490E0A0E0B0E004C091
:1018D0008FE390E0A0E0B0E0E80EF91E0A1F1B1FA6
:1018E00017FF05C016950795F794E794319687E0A2
:1018F00016950795F794E7948A95D1F705C0EE24DD
:10190000FF248701EFEFF0E06E2F6795662767955C
:10191000902F9F77D794DD24D7948E2F8695492FCB
:10192000462B582F5D29B701CA011F910F91FF90D7
:10193000EF90DF900895FC01DB014081518122810D
:10194000622F6F7770E0221F2227221F9381892F39
:10195000880F822B282F30E0991F9927991F119605
:101960009C93119721153105A9F541155105610584
:10197000710511F482E037C082E89FEF13969C93C3
:101980008E9312979A01AB0167E0220F331F441F19
:10199000551F6A95D1F783E08C930DC0220F331F3A
:1019A000441F551F12968D919C9113970197139682
:1019B0009C938E931297203080E0380780E0480790
:1019C00080E4580758F314962D933D934D935C9300
:1019D000179708952F3F310579F441155105610599
:1019E000710519F484E08C93089564FF03C081E0CD
:1019F0008C9312C01C9210C02F57304013963C930A
:101A00002E93129783E08C9387E0440F551F661F37
:101A1000771F8A95D1F7706414964D935D936D93FB
:101A20007C93179708951F93DC01FB019C919230E2
:101A300008F447C08081823008F443C0943051F4E8
:101A400011961C91843099F58181682F70E0611B9B
:101A500071093FC0843021F0923031F48230B9F105
:101A60008181882389F12DC011961C9111978230B4
:101A7000F1F081811817D9F412962D913C911397AA
:101A8000828193818217930794F028173907BCF05D
:101A900014968D919D910D90BC91A02D248135813E
:101AA00046815781281739074A075B0718F4112325
:101AB00041F00AC082179307A407B50740F4112329
:101AC00019F061E070E005C06FEF7FEF02C060E0E9
:101AD00070E0CB011F9108952F923F924F925F9239
:101AE0006F927F928F929F92AF92BF92CF92DF922E
:101AF000EF92FF920F931F93CF93DF93CDB7DEB793
:101B0000CA1BDB0B0FB6F894DEBF0FBECDBF099426
:101B10002A88398848885F846E847D848C849B847D
:101B2000AA84B984C884DF80EE80FD800C811B818B
:101B3000AA81B981CE0FD11D0FB6F894DEBF0FBEBA
:101B4000CDBFED010895F999FECF92BD81BDF89A00
:101B5000992780B50895A6E1B0E044E050E00C94E8
:101B6000CE0D262FF999FECF1FBA92BD81BD20BDA3
:101B70000FB6F894FA9AF99A0FBE01960895242F99
:101B80000E94B20D252F0E94B20D0C94C70D0E9429
:101B9000B10D272F0C94B20DDC01CB01FC01F9999A
:101BA000FECF06C0F2BDE1BDF89A319600B40D92A9
:0C1BB00041505040B8F70895F894FFCF62
:101BBC00640367036C0371037603B403F203340606
:101BCC009A054F045A045305FE04E1050000000079
:101BDC0000000000000102020303030304040404D8
:101BEC00040404040505050505050505050505059D
:101BFC00050505050606060606060606060606067D
:101C0C000606060606060606060606060606060668
:101C1C00060606060707070707070707070707074C
:101C2C000707070707070707070707070707070738
:101C3C000707070707070707070707070707070728
:101C4C000707070707070707070707070707070718
:101C5C0007070707080808080808080808080808FC
:101C6C0008080808080808080808080808080808E8
:101C7C0008080808080808080808080808080808D8
:101C8C0008080808080808080808080808080808C8
:101C9C0008080808080808080808080808080808B8
:101CAC0008080808080808080808080808080808A8
:101CBC000808080808080808080808080808080898
:101CCC000808080808080808080808080808080888
:041CDC0008080808E4
:00000001FF
