:100000000C9434000C9451000C9451000C94510049
:100010000C9451000C9451000C9451000C9451001C
:100020000C9451000C9451000C9451000C9451000C
:100030000C9451000C9451000C9451000C945100FC
:100040000C9451000C9451000C94BF010C9451007D
:100050000C9451000C9451000C9451000C945100DC
:100060000C9451000C94510011241FBECFEFD8E026
:10007000DEBFCDBF12E0A0E0B1E0E4E1F5E102C0F7
:1000800005900D92A432B107D9F712E0A4E2B2E0D4
:1000900001C01D92AB33B107E1F70E94AD030C9490
:1000A000880A0C940000209A2198229A239A249A74
:1000B000389839980895E1E8F0E080818160808384
:1000C00008951092C50087E68093C400E0ECF0E04C
:1000D00080818D7F808386E08093C20088E9809351
:1000E000C1000895AAE7B0E08C9187608C93ECE79B
:1000F000F0E080818064808380818F7780838C9121
:1001000080688C93089580917C008E7F80937C0022
:1001100080917A00806480937A0080917A0086FDD5
:10012000FCCF609178007091790080E090E00E94AF
:10013000AA0720E030E44CE955E40E94740520E071
:1001400030E040E85AE30E94740520E030E04AEFD6
:1001500053E40E94160520E030E040E251E40E94A2
:100160006E060895289A85E38A95F1F72898199BD9
:10017000FECF10928500109284001999FECF6091F5
:1001800084007091850080E090E00E94AA0720E042
:1001900030E040E85DE30E94740520E030E048E68E
:1001A00052E40E946E06089580917C0081608093E5
:1001B0007C0080917A00806480937A0080917A003C
:1001C00086FDFCCF609178007091790080E090E02E
:1001D0000E94AA0720E030E040E85AE30E9474053C
:1001E00020E030E048EC52E40E9474050895982F16
:1001F0008091C00085FFFCCF9093C6000895482FE2
:100200008091C00085FFFCCF82E08093C600809182
:10021000C00085FFFCCF82E38093C600242F392FD6
:10022000C901FC0108C090818091C00085FFFCCF0E
:100230009093C60031968E2F841B8617A4F380916D
:10024000C00085FFFCCF83E08093C60008958091B5
:10025000C00085FFFCCF82E08093C6008091C00083
:1002600085FFFCCF80E38093C6008091C00085FFAE
:10027000FCCF83E08093C60008958091C00085FF85
:10028000FCCF82E08093C6008091C00085FFFCCF48
:1002900081E38093C6008091C00085FFFCCF83E09E
:1002A0008093C6000895DF93CF9300D000D0CDB7E0
:1002B000DEB769837A838B839C83CE01019664E0E9
:1002C0000E94FF000F900F900F900F90CF91DF9141
:1002D00008950E94270108950E9483000E945301FF
:1002E00008950E94B2000E94530108950E94D40014
:1002F0000E94530108950E943D0108950E943D010E
:1003000008950E943D01089560912A0270912B0288
:1003100080912C0290912D020E94530108956091CA
:1003200026027091270280912802909129020E9452
:10033000530108950E943D010895E0912E02E15479
:10034000FF27E7FDF095EE0FFF1FE050FF4F0190F4
:10035000F081E02D099508951092240210922E024A
:100360001092250280E090E0A0E0B0E0809333029C
:1003700090933402A0933502B093360208951F92F1
:100380000F920FB60F9211242F933F934F935F93C9
:100390006F937F938F939F93AF93BF93EF93FF934D
:1003A0009091C6009230A1F410922E021092250274
:1003B00080E090E0A0E0B0E08093330290933402BC
:1003C000A0933502B093360281E0809324022EC0C0
:1003D00080912402882329F090932E021092240207
:1003E00025C09330A9F40E949D011092240210921E
:1003F0002E021092250280E090E0A0E0B0E0809311
:10040000330290933402A0933502B09336020EC0AB
:1004100080912502843054F4E82FFF27E7FDF09502
:10042000ED5CFD4F90838F5F80932502FF91EF91EC
:10043000BF91AF919F918F917F916F915F914F91FC
:100440003F912F910F900FBE0F901F901895AB0109
:10045000BC0140932A0250932B0260932C027093AC
:100460002D028DE090E00E946B0A0895EF92FF92BA
:100470000F931F93E0903302F09034020091350205
:1004800010913602C801B70120E030E040EA50E4A4
:100490000E941A0788234CF1C801B70120E030E020
:1004A0004AE253E40E947A071816FCF0C801B7012B
:1004B00020913702309138024091390250913A022E
:1004C0000E944A0788238CF4E0922A02F0922B02C1
:1004D00000932C0210932D028DE090E0B801A7014B
:1004E0000E946B0A0E94270102C00E943D011F91D9
:1004F0000F91FF90EF900895AB01BC01409337023C
:10050000509338026093390270933A0289E090E088
:100510000E946B0A0895EF92FF920F931F93E09051
:100520003302F09034020091350210913602C80176
:10053000B70120E030E040EA50E40E941A07882327
:10054000DCF0C801B70120E030E04AE253E40E9449
:100550007A0718168CF0E0923702F0923802009376
:10056000390210933A0289E090E0B801A7010E9495
:100570006B0A0E94270102C00E943D011F910F914A
:10058000FF90EF900895AB01BC0140932602509379
:100590002702609328027093290285E090E00E9470
:1005A0006B0A0895EF92FF920F931F93E09033022E
:1005B000F09034020091350210913602C801B70163
:1005C00020E030E040E050E00E941A078823DCF091
:1005D000C801B70120E030E048EC52E40E947A07FD
:1005E00018168CF0E0922602F0922702009328025F
:1005F0001093290285E090E0B801A7010E946B0AE0
:100600000E94270102C00E943D011F910F91FF909F
:10061000EF900895AB01BC0140932A0250932B0246
:1006200060932C0270932D0281E090E00E946B0A8F
:100630000895EF92FF920F931F93E0903302F09092
:1006400034020091350210913602C801B70120E052
:1006500030E048E452EC0E941A078823DCF0C8011D
:10066000B70120E030E040EF52E40E947A0718160C
:100670008CF0E0922A02F0922B0200932C0210934D
:100680002D0281E090E0B801A7010E946B0A0E9450
:10069000270102C00E943D011F910F91FF90EF9032
:1006A000089580E090E00E944F0A813029F180E0B7
:1006B00090E061E00E945D0A81E090E040E050E05F
:1006C00068EC71E40E946B0A85E090E040E050E045
:1006D00060EA72E40E946B0A89E090E040E050E03A
:1006E0006AE273E40E946B0A8DE090E040E050E023
:1006F00060EA70E40E946B0A81E090E00E94570A71
:1007000060932A0270932B0280932C0290932D0207
:1007100085E090E00E94570A6093260270932702BA
:10072000809328029093290289E090E00E94570A62
:1007300060933702709338028093390290933A02A3
:100740008DE090E00E94570A60932F027093300270
:10075000809331029093320208950E9451030E94C7
:100760005300809181008160809381000E9461002C
:100770000E94720078942B9A4CE120E931E085B117
:10078000842785B980E197E2F9013197F1F7019764
:10079000D9F7F5CFA0E0B0E0E0EDF3E00C94180A53
:1007A000DC012B01FA019C91923008F439C1EB0174
:1007B0008881823008F433C1943069F4843009F0C0
:1007C0002FC111969C9111978981981709F428C11E
:1007D000ACE1B1E025C1843009F421C18230A9F433
:1007E000923009F01DC19A01AD0188E0EA0109903B
:1007F000AE01E90109929E018150C1F7E2018981B0
:1008000011969C918923818308C1923009F407C114
:1008100012962D903C901397EB018A819B81149640
:10082000AD90BD90CD90DC901797EC80FD800E814F
:100830001F819101281B390BB90137FF04C06627BE
:100840007727621B730B603271050CF061C01216C2
:1008500013066CF537014801062E04C09694879460
:10086000779467940A94D2F721E030E040E050E0BA
:1008700004C0220F331F441F551F6A95D2F7215021
:100880003040404050402E213F214023512321152C
:1008900031054105510521F021E030E040E050E014
:1008A00079018A01E628F728082919293CC0232B59
:1008B000D1F1260E371E35014601062E04C096944E
:1008C0008794779467940A94D2F721E030E040E06F
:1008D00050E004C0220F331F441F551F6A95D2F702
:1008E00021503040404050402A213B214C215D2185
:1008F000211531054105510521F021E030E040E0AE
:1009000050E059016A01A628B728C828D9280BC089
:10091000821593052CF01C01AA24BB24650103C099
:10092000EE24FF24870111969C91D20111968C919F
:10093000981709F445C0992339F0A80197012A199D
:100940003B094C095D0906C0A60195012E193F0916
:10095000400B510B57FD08C0118233822282248341
:100960003583468357831DC081E081833382228291
:1009700088279927DC01821B930BA40BB50B84837A
:100980009583A683B7830DC0220F331F441F551FC5
:100990002483358346835783828193810197938390
:1009A00082832481358146815781DA01C90101970B
:1009B000A109B1098F5F9F4FAF4FBF4328F30BC011
:1009C000918333822282EA0CFB1C0C1D1D1DE482E4
:1009D000F5820683178383E08083248135814681F5
:1009E000578157FF1AC0C901AA2797FDA095BA2FB2
:1009F00081709070A070B070569547953795279587
:100A0000822B932BA42BB52B84839583A683B7834A
:100A100082819381019693838283DF0101C0D20199
:100A2000CD01CDB7DEB7E2E10C94340AA0E2B0E02C
:100A3000ECE1F5E00C94240A69837A838B839C8330
:100A40002D833E834F835887E9E0EE2EF12CEC0E88
:100A5000FD1ECE010196B7010E9447098E010F5E6F
:100A60001F4FCE010596B8010E9447098A8991E07F
:100A700089278A8BC701B801AE01475E5F4F0E948C
:100A8000CA030E947208A096E6E00C94400AA0E215
:100A9000B0E0EDE4F5E00C94240A69837A838B835B
:100AA0009C832D833E834F835887F9E0EF2EF12CF2
:100AB000EC0EFD1ECE010196B7010E9447098E0182
:100AC0000F5E1F4FCE010596B8010E944709C7016E
:100AD000B801AE01475E5F4F0E94CA030E947208D0
:100AE000A096E6E00C94400AA0E2B0E0EAE7F5E068
:100AF0000C94180A69837A838B839C832D833E83AD
:100B00004F835887CE010196BE01675F7F4F0E94D9
:100B10004709CE010596BE016F5E7F4F0E944709CF
:100B20009985923088F089898230C8F0943019F420
:100B3000823051F404C0843029F4923081F48CE185
:100B400091E0C6C0923049F420E09A858A899813D2
:100B500021E02A87CE010996BBC0823049F420E00B
:100B60009A858A89981321E02A8BCE014196B0C0DC
:100B70002D843E844F8458886D887E888F88988C19
:100B8000EE24FF248701AA24BB24650140E050E045
:100B900060E070E0E0E0F0E0C10181709070892BCE
:100BA000E9F0E60CF71C081D191D9A01AB012A0D8E
:100BB0003B1D4C1D5D1D80E090E0A0E0B0E0E61420
:100BC000F7040805190520F481E090E0A0E0B0E00A
:100BD000BA01A901480F591F6A1F7B1FAA0CBB1C31
:100BE000CC1CDD1C97FE08C081E090E0A0E0B0E0E6
:100BF000A82AB92ACA2ADB2A3196E032F10549F03F
:100C0000660C771C881C991C56944794379427943B
:100C1000C3CFFA85EA892B893C898B859C85280F6F
:100C2000391F2E5F3F4F17C0CA0181709070892B0A
:100C300061F016950795F794E79480E090E0A0E0C6
:100C4000B0E8E82AF92A0A2B1B2B76956795579569
:100C500047952F5F3F4F77FDE7CF0CC0440F551FDF
:100C6000661F771F17FD4160EE0CFF1C001F111F50
:100C700021503040403090E0590790E0690790E4FF
:100C8000790760F32B8F3C8FDB01CA018F7790705F
:100C9000A070B07080349105A105B10561F447FDE5
:100CA0000AC0E114F1040105110529F0405C5F4F11
:100CB0006F4F7F4F40781A8EFE1711F081E08A8FB8
:100CC0004D8F5E8F6F8F78A383E0898FCE01499619
:100CD0000E947208A096E2E10C94340AA8E1B0E008
:100CE000E4E7F6E00C94200A69837A838B839C8383
:100CF0002D833E834F835887B9E0EB2EF12CEC0E09
:100D0000FD1ECE010196B7010E9447098E010F5EBC
:100D10001F4FCE010596B8010E9447092985223050
:100D200008F47EC03989323010F4B8017CC08A855D
:100D30009A8989278A87243011F0223031F42317C9
:100D400009F06EC06CE171E06EC0343039F41D867C
:100D50001E861F86188A1C861B8604C0323021F42A
:100D600084E08987B7015FC02B853C858B899C898E
:100D7000281B390B3C872B87ED84FE840F8518894F
:100D8000AD88BE88CF88D88CEA14FB040C051D05FD
:100D900040F4EE0CFF1C001F111F215030403C8717
:100DA0002B8720E030E040E050E080E090E0A0E0E1
:100DB000B0E460E070E0EA14FB040C051D0540F0AF
:100DC000282B392B4A2B5B2BEA18FB080C091D0931
:100DD000B695A79597958795EE0CFF1C001F111FE0
:100DE0006F5F7F4F6F31710531F7DA01C9018F777E
:100DF0009070A070B07080349105A105B10561F4C8
:100E000027FD0AC0E114F1040105110529F0205C59
:100E10003F4F4F4F5F4F20782D873E874F87588B2E
:100E2000BE01675F7F4FCB010E9472086896EAE0BF
:100E30000C943C0AA8E1B0E0E0E2F7E00C94240A4C
:100E400069837A838B839C832D833E834F8358876A
:100E500089E0E82EF12CEC0EFD1ECE010196B701C3
:100E60000E9447098E010F5E1F4FCE010596B80103
:100E70000E9447098985823040F08989823028F0B4
:100E8000C701B8010E94BF0901C08FEF6896E6E074
:100E90000C94400AA8E1B0E0E0E5F7E00C94240AE5
:100EA00069837A838B839C832D833E834F8358870A
:100EB00089E0E82EF12CEC0EFD1ECE010196B70163
:100EC0000E9447098E010F5E1F4FCE010596B801A3
:100ED0000E9447098985823040F08989823028F054
:100EE000C701B8010E94BF0901C081E06896E6E031
:100EF0000C94400AA8E1B0E0E0E8F7E00C94240A82
:100F000069837A838B839C832D833E834F835887A9
:100F100089E0E82EF12CEC0EFD1ECE010196B70102
:100F20000E9447098E010F5E1F4FCE010596B80142
:100F30000E9447098985823040F08989823028F0F3
:100F4000C701B8010E94BF0901C081E06896E6E0D0
:100F50000C94400AA8E0B0E0E0EBF7E00C94200A23
:100F60007B018C01611571058105910519F482E001
:100F7000898360C083E089838EE1C82ED12CDC8216
:100F8000CB82ED82FE820F831887C801B7010E94D1
:100F90002308FC013197F7FF3BC0222733272E1B84
:100FA0003F0B57016801022E04C0D694C794B79432
:100FB000A7940A94D2F740E050E060E070E081E04E
:100FC00090E0A0E0B0E004C0880F991FAA1FBB1FEB
:100FD0002A95D2F70197A109B1098E219F21A0235B
:100FE000B1230097A105B10521F041E050E060E098
:100FF00070E04A295B296C297D294D835E836F83CC
:1010000078878EE190E08E1B9F0B9C838B8312C0B0
:10101000309781F00E2E04C0EE0CFF1C001F111F34
:101020000A94D2F7ED82FE820F831887CE1ADF0A68
:10103000DC82CB821A82CE0101960E947208289629
:10104000EAE00C943C0AEF92FF920F931F937B010E
:101050008C0180E0E81680E0F80681E0080780E077
:10106000180788F48FEFE816F1040105110531F037
:1010700028F088E090E0A0E0B0E017C080E090E0C9
:10108000A0E0B0E012C080E0E81680E0F80680E062
:10109000080781E0180728F088E190E0A0E0B0E0C0
:1010A00004C080E190E0A0E0B0E020E230E040E069
:1010B00050E0281B390B4A0B5B0B04C016950795B3
:1010C000F794E7948A95D2F7F701EC5DFE4F8081A3
:1010D000281B310941095109C9011F910F91FF9046
:1010E000EF900895DF92EF92FF920F931F93FC0110
:1010F000E480F58006811781D1808081823048F4B8
:1011000080E090E0A0E1B0E0E82AF92A0A2B1B2B4E
:10111000A5C0843009F49FC0823021F4EE24FF245E
:10112000870105C0E114F1040105110519F4E0E09F
:10113000F0E096C0628173819FEF623879070CF00E
:101140005BC022E83FEF261B370B2A3131052CF01C
:1011500020E030E040E050E02AC0B801A701022EB4
:1011600004C076956795579547950A94D2F781E024
:1011700090E0A0E0B0E004C0880F991FAA1FBB1F39
:101180002A95D2F70197A109B1098E219F21A023A9
:10119000B1230097A105B10521F081E090E0A0E026
:1011A000B0E09A01AB01282B392B4A2B5B2BDA01DB
:1011B000C9018F779070A070B07080349105A1053F
:1011C000B10539F427FF09C0205C3F4F4F4F5F4FF7
:1011D00004C0215C3F4F4F4F5F4FE0E0F0E0203014
:1011E000A0E03A07A0E04A07A0E45A0710F0E1E0C7
:1011F000F0E079018A0127C06038710564F5FB01D0
:10120000E158FF4FD801C7018F779070A070B07080
:1012100080349105A105B10539F4E7FE0DC080E4E5
:1012200090E0A0E0B0E004C08FE390E0A0E0B0E088
:10123000E80EF91E0A1F1B1F17FF05C0169507951C
:10124000F794E794319687E016950795F794E7941D
:101250008A95D1F705C0EE24FF248701EFEFF0E077
:101260006E2F679566276795902F9F77D794DD241B
:10127000D7948E2F8695492F462B582F5D29B7017D
:10128000CA011F910F91FF90EF90DF900895FC012C
:10129000DB01408151812281622F6F7770E0221F34
:1012A0002227221F9381892F880F822B282F30E03D
:1012B000991F9927991F11969C9311972115310514
:1012C000A9F5411551056105710511F482E037C09A
:1012D00082E89FEF13969C938E9312979A01AB012D
:1012E00067E0220F331F441F551F6A95D1F783E033
:1012F0008C930DC0220F331F441F551F12968D91E2
:101300009C911397019713969C938E93129720307C
:1013100080E0380780E0480780E4580758F31496C7
:101320002D933D934D935C93179708952F3F31056F
:1013300079F4411551056105710519F484E08C9328
:10134000089564FF03C081E08C9312C01C9210C00A
:101350002F57304013963C932E93129783E08C9333
:1013600087E0440F551F661F771F8A95D1F7706479
:1013700014964D935D936D937C93179708951F93E7
:10138000DC01FB019C91923008F447C080818230DF
:1013900008F443C0943051F411961C91843099F5AF
:1013A0008181682F70E0611B71093FC0843021F09A
:1013B000923031F48230B9F18181882389F12DC0D6
:1013C00011961C9111978230F1F081811817D9F490
:1013D00012962D913C9113978281938182179307E6
:1013E00094F028173907BCF014968D919D910D90BB
:1013F000BC91A02D2481358146815781281739075A
:101400004A075B0718F4112341F00AC082179307BB
:10141000A407B50740F4112319F061E070E005C09E
:101420006FEF7FEF02C060E070E0CB011F91089585
:101430002F923F924F925F926F927F928F929F92E4
:10144000AF92BF92CF92DF92EF92FF920F931F93D2
:10145000CF93DF93CDB7DEB7CA1BDB0B0FB6F89483
:10146000DEBF0FBECDBF09942A88398848885F84C3
:101470006E847D848C849B84AA84B984C884DF8034
:10148000EE80FD800C811B81AA81B981CE0FD11D18
:101490000FB6F894DEBF0FBECDBFED010895F999E8
:1014A000FECF92BD81BDF89A992780B50895A6E137
:1014B000B0E044E050E00C947A0A262FF999FECF70
:1014C0001FBA92BD81BD20BD0FB6F894FA9AF99A61
:1014D0000FBE01960895242F0E945E0A252F0E94B8
:1014E0005E0A0C94730A0E945D0A272F0C945E0A10
:1014F000DC01CB01FC01F999FECF06C0F2BDE1BDD4
:10150000F89A319600B40D9241505040B8F70895C2
:04151000F894FFCF7D
:1015140069016C01710176017B017E01810119036E
:10152400D20284018F018B0236029A01000000006E
:101534000000000000010202030303030404040486
:10154400040404040505050505050505050505054B
:10155400050505050606060606060606060606062B
:101564000606060606060606060606060606060617
:1015740006060606070707070707070707070707FB
:1015840007070707070707070707070707070707E7
:1015940007070707070707070707070707070707D7
:1015A40007070707070707070707070707070707C7
:1015B40007070707080808080808080808080808AB
:1015C4000808080808080808080808080808080897
:1015D4000808080808080808080808080808080887
:1015E4000808080808080808080808080808080877
:1015F4000808080808080808080808080808080867
:101604000808080808080808080808080808080856
:101614000808080808080808080808080808080846
:101624000808080808080808080808080808080836
:041634000808080892
:00000001FF
