:100000000C9434000C943E000C943E000C943E0082
:100010000C943E000C943E000C943E000C943E0068
:100020000C943E000C943E000C943E000C943E0058
:100030000C943E000C943E000C943E000C943E0048
:100040000C943E000C943E000C943E000C943E0038
:100050000C943E000C943E000C943E000C943E0028
:100060000C943E000C943E0011241FBECFEFD8E04C
:10007000DEBFCDBF0E945B000C9468000C940000B2
:100080001092C50087E68093C400E0ECF0E0808128
:100090008D7F808386E08093C20088E18093C100D9
:1000A00008958093C60008958091C00087FFFCCF1B
:1000B0008091C60008950E944000229ADEE2C4E0CA
:1000C000D093C6000E94540085B18C2785B9F8CF23
:0400D000F894FFCFD2
:00000001FF
