:100000000C9434000C9451000C9451000C94510049
:100010000C9451000C9451000C9451000C9451001C
:100020000C9451000C9451000C9451000C9451000C
:100030000C9451000C9451000C9451000C945100FC
:100040000C9451000C9451000C9472000C945100CB
:100050000C9451000C9451000C9451000C945100DC
:100060000C9451000C94510011241FBECFEFD8E026
:10007000DEBFCDBF11E0A0E0B1E0E8E9F1E002C0F1
:1000800005900D92A230B107D9F721E0A2E0B1E0CE
:1000900001C01D92A430B207E1F70E94AF000C949A
:1000A000CA000C9400001092C50087E68093C4003B
:1000B000E0ECF0E080818D7F808386E08093C20059
:1000C00088E98093C1000895E6ECF0E08AE080833F
:1000D000A2E0B1E012968C911297808311968C91D8
:1000E000808308951F920F920FB60F9211242F93C1
:1000F0003F934F935F936F937F938F939F93AF93B0
:10010000BF93EF93FF939091C6009A3211F482E06F
:1001100013C0809100019D3029F4811103C00E9419
:1001200064000CC0181654F4E82F082E000CFF0BC6
:10013000EE5FFE4F9083815080930001FF91EF911D
:10014000BF91AF919F918F917F916F915F914F91EF
:100150003F912F910F900FBE0F901F9018950E9406
:1001600053007894229A94E02FEF31EE84E02150EE
:1001700030408040E1F700C0000085B1892785B993
:100180002FEF31EE84E0215030408040E1F700C095
:080190000000EACFF894FFCF54
:02019800020063
:00000001FF
